{
  "contractName": "Simplr",
  "abi": [
    {
      "constant": true,
      "inputs": [],
      "name": "groupName",
      "outputs": [
        {
          "name": "",
          "type": "string"
        }
      ],
      "payable": false,
      "stateMutability": "view",
      "type": "function"
    },
    {
      "constant": true,
      "inputs": [],
      "name": "contractBalance",
      "outputs": [
        {
          "name": "",
          "type": "uint256"
        }
      ],
      "payable": false,
      "stateMutability": "view",
      "type": "function"
    },
    {
      "constant": true,
      "inputs": [
        {
          "name": "",
          "type": "address"
        }
      ],
      "name": "users",
      "outputs": [
        {
          "name": "name",
          "type": "string"
        },
        {
          "name": "addr",
          "type": "address"
        },
        {
          "name": "balance",
          "type": "uint256"
        }
      ],
      "payable": false,
      "stateMutability": "view",
      "type": "function"
    },
    {
      "constant": true,
      "inputs": [
        {
          "name": "",
          "type": "uint256"
        }
      ],
      "name": "expenses",
      "outputs": [
        {
          "name": "title",
          "type": "string"
        },
        {
          "name": "amount",
          "type": "uint256"
        },
        {
          "name": "payTo",
          "type": "address"
        },
        {
          "name": "notes",
          "type": "string"
        }
      ],
      "payable": false,
      "stateMutability": "view",
      "type": "function"
    },
    {
      "constant": true,
      "inputs": [
        {
          "name": "",
          "type": "uint256"
        }
      ],
      "name": "addressList",
      "outputs": [
        {
          "name": "",
          "type": "address"
        }
      ],
      "payable": false,
      "stateMutability": "view",
      "type": "function"
    },
    {
      "constant": false,
      "inputs": [
        {
          "name": "gName",
          "type": "string"
        },
        {
          "name": "userName",
          "type": "string"
        }
      ],
      "name": "createContract",
      "outputs": [],
      "payable": false,
      "stateMutability": "nonpayable",
      "type": "function"
    },
    {
      "constant": false,
      "inputs": [
        {
          "name": "userName",
          "type": "string"
        },
        {
          "name": "userAddress",
          "type": "address"
        }
      ],
      "name": "addUser",
      "outputs": [],
      "payable": false,
      "stateMutability": "nonpayable",
      "type": "function"
    },
    {
      "constant": false,
      "inputs": [],
      "name": "fundContract",
      "outputs": [],
      "payable": true,
      "stateMutability": "payable",
      "type": "function"
    },
    {
      "constant": false,
      "inputs": [
        {
          "name": "amount",
          "type": "uint256"
        }
      ],
      "name": "withdraw",
      "outputs": [],
      "payable": true,
      "stateMutability": "payable",
      "type": "function"
    },
    {
      "constant": false,
      "inputs": [
        {
          "name": "paymentTitle",
          "type": "string"
        },
        {
          "name": "paymentAmount",
          "type": "uint256"
        },
        {
          "name": "paymentAddress",
          "type": "address"
        },
        {
          "name": "paymentPayees",
          "type": "address[]"
        },
        {
          "name": "paymentNotes",
          "type": "string"
        }
      ],
      "name": "makePayment",
      "outputs": [],
      "payable": true,
      "stateMutability": "payable",
      "type": "function"
    },
    {
      "constant": true,
      "inputs": [],
      "name": "isUserInGroup",
      "outputs": [
        {
          "name": "",
          "type": "bool"
        }
      ],
      "payable": false,
      "stateMutability": "view",
      "type": "function"
    },
    {
      "constant": true,
      "inputs": [],
      "name": "getNumberOfUsers",
      "outputs": [
        {
          "name": "",
          "type": "uint256"
        }
      ],
      "payable": false,
      "stateMutability": "view",
      "type": "function"
    },
    {
      "constant": true,
      "inputs": [],
      "name": "getUserBalance",
      "outputs": [
        {
          "name": "",
          "type": "uint256"
        }
      ],
      "payable": false,
      "stateMutability": "view",
      "type": "function"
    },
    {
      "constant": true,
      "inputs": [],
      "name": "getUserAddress",
      "outputs": [
        {
          "name": "",
          "type": "address"
        }
      ],
      "payable": false,
      "stateMutability": "view",
      "type": "function"
    },
    {
      "constant": true,
      "inputs": [],
      "name": "getContractBalance",
      "outputs": [
        {
          "name": "",
          "type": "uint256"
        }
      ],
      "payable": false,
      "stateMutability": "view",
      "type": "function"
    },
    {
      "constant": true,
      "inputs": [],
      "name": "getUserName",
      "outputs": [
        {
          "name": "",
          "type": "string"
        }
      ],
      "payable": false,
      "stateMutability": "view",
      "type": "function"
    }
  ],
  "bytecode": "0x608060405234801561001057600080fd5b50611e6e806100206000396000f3006080604052600436106100e6576000357c0100000000000000000000000000000000000000000000000000000000900463ffffffff16806312958f1c146100eb5780632e1a7d4d1461017b5780634d0092881461019b578063631a4231146101c65780636f9fb98a14610275578063783cec80146102a0578063864a0d0a146103305780638b7afe2e146103b9578063a87430ba146103e4578063af4afe0a146104da578063b7013dc114610626578063b810fb4314610651578063bd097e21146106be578063e796d39d146106c8578063ebc3eee8146106f7578063fad70e191461074e575b600080fd5b3480156100f757600080fd5b5061010061085d565b6040518080602001828103825283818151815260200191508051906020019080838360005b83811015610140578082015181840152602081019050610125565b50505050905090810190601f16801561016d5780820380516001836020036101000a031916815260200191505b509250505060405180910390f35b610199600480360381019080803590602001909291905050506109d9565b005b3480156101a757600080fd5b506101b0610c17565b6040518082815260200191505060405180910390f35b3480156101d257600080fd5b50610273600480360381019080803590602001908201803590602001908080601f0160208091040260200160405190810160405280939291908181526020018383808284378201915050505050509192919290803590602001908201803590602001908080601f0160208091040260200160405190810160405280939291908181526020018383808284378201915050505050509192919290505050610c24565b005b34801561028157600080fd5b5061028a610c51565b6040518082815260200191505060405180910390f35b3480156102ac57600080fd5b506102b5610d0b565b6040518080602001828103825283818151815260200191508051906020019080838360005b838110156102f55780820151818401526020810190506102da565b50505050905090810190601f1680156103225780820380516001836020036101000a031916815260200191505b509250505060405180910390f35b34801561033c57600080fd5b506103b7600480360381019080803590602001908201803590602001908080601f0160208091040260200160405190810160405280939291908181526020018383808284378201915050505050509192919290803573ffffffffffffffffffffffffffffffffffffffff169060200190929190505050610da9565b005b3480156103c557600080fd5b506103ce610f9d565b6040518082815260200191505060405180910390f35b3480156103f057600080fd5b50610425600480360381019080803573ffffffffffffffffffffffffffffffffffffffff169060200190929190505050610fa3565b60405180806020018473ffffffffffffffffffffffffffffffffffffffff1673ffffffffffffffffffffffffffffffffffffffff168152602001838152602001828103825285818151815260200191508051906020019080838360005b8381101561049d578082015181840152602081019050610482565b50505050905090810190601f1680156104ca5780820380516001836020036101000a031916815260200191505b5094505050505060405180910390f35b3480156104e657600080fd5b5061050560048036038101908080359060200190929190505050611085565b60405180806020018581526020018473ffffffffffffffffffffffffffffffffffffffff1673ffffffffffffffffffffffffffffffffffffffff16815260200180602001838103835287818151815260200191508051906020019080838360005b83811015610581578082015181840152602081019050610566565b50505050905090810190601f1680156105ae5780820380516001836020036101000a031916815260200191505b50838103825284818151815260200191508051906020019080838360005b838110156105e75780820151818401526020810190506105cc565b50505050905090810190601f1680156106145780820380516001836020036101000a031916815260200191505b50965050505050505060405180910390f35b34801561063257600080fd5b5061063b611214565b6040518082815260200191505060405180910390f35b34801561065d57600080fd5b5061067c600480360381019080803590602001909291905050506112f8565b604051808273ffffffffffffffffffffffffffffffffffffffff1673ffffffffffffffffffffffffffffffffffffffff16815260200191505060405180910390f35b6106c6611336565b005b3480156106d457600080fd5b506106dd611432565b604051808215151515815260200191505060405180910390f35b34801561070357600080fd5b5061070c6114c9565b604051808273ffffffffffffffffffffffffffffffffffffffff1673ffffffffffffffffffffffffffffffffffffffff16815260200191505060405180910390f35b61085b600480360381019080803590602001908201803590602001908080601f016020809104026020016040519081016040528093929190818152602001838380828437820191505050505050919291929080359060200190929190803573ffffffffffffffffffffffffffffffffffffffff16906020019092919080359060200190820180359060200190808060200260200160405190810160405280939291908181526020018383602002808284378201915050505050509192919290803590602001908201803590602001908080601f01602080910402602001604051908101604052809392919081815260200183838082843782019150505050505091929192905050506115cd565b005b60606000803373ffffffffffffffffffffffffffffffffffffffff1673ffffffffffffffffffffffffffffffffffffffff16815260200190815260200160002060010160009054906101000a900473ffffffffffffffffffffffffffffffffffffffff1673ffffffffffffffffffffffffffffffffffffffff163373ffffffffffffffffffffffffffffffffffffffff161415156108fa57600080fd5b6000803373ffffffffffffffffffffffffffffffffffffffff1673ffffffffffffffffffffffffffffffffffffffff1681526020019081526020016000206000018054600181600116156101000203166002900480601f0160208091040260200160405190810160405280929190818152602001828054600181600116156101000203166002900480156109cf5780601f106109a4576101008083540402835291602001916109cf565b820191906000526020600020905b8154815290600101906020018083116109b257829003601f168201915b5050505050905090565b6000803373ffffffffffffffffffffffffffffffffffffffff1673ffffffffffffffffffffffffffffffffffffffff16815260200190815260200160002060010160009054906101000a900473ffffffffffffffffffffffffffffffffffffffff1673ffffffffffffffffffffffffffffffffffffffff163373ffffffffffffffffffffffffffffffffffffffff16141515610a7457600080fd5b6000803373ffffffffffffffffffffffffffffffffffffffff1673ffffffffffffffffffffffffffffffffffffffff16815260200190815260200160002060010160009054906101000a900473ffffffffffffffffffffffffffffffffffffffff1673ffffffffffffffffffffffffffffffffffffffff163373ffffffffffffffffffffffffffffffffffffffff16141515610b0f57600080fd5b600081111515610b1e57600080fd5b6000803373ffffffffffffffffffffffffffffffffffffffff1673ffffffffffffffffffffffffffffffffffffffff168152602001908152602001600020600201548111151515610b6e57600080fd5b3373ffffffffffffffffffffffffffffffffffffffff166108fc829081150290604051600060405180830381858888f19350505050158015610bb4573d6000803e3d6000fd5b50806000803373ffffffffffffffffffffffffffffffffffffffff1673ffffffffffffffffffffffffffffffffffffffff168152602001908152602001600020600201600082825403925050819055508060036000828254039250508190555050565b6000600180549050905090565b8160049080519060200190610c3a929190611bd2565b50610c458133610da9565b60006003819055505050565b60008060003373ffffffffffffffffffffffffffffffffffffffff1673ffffffffffffffffffffffffffffffffffffffff16815260200190815260200160002060010160009054906101000a900473ffffffffffffffffffffffffffffffffffffffff1673ffffffffffffffffffffffffffffffffffffffff163373ffffffffffffffffffffffffffffffffffffffff16141515610cee57600080fd5b3073ffffffffffffffffffffffffffffffffffffffff1631905090565b60048054600181600116156101000203166002900480601f016020809104026020016040519081016040528092919081815260200182805460018160011615610100020316600290048015610da15780601f10610d7657610100808354040283529160200191610da1565b820191906000526020600020905b815481529060010190602001808311610d8457829003601f168201915b505050505081565b610db1611c52565b6000808373ffffffffffffffffffffffffffffffffffffffff1673ffffffffffffffffffffffffffffffffffffffff16815260200190815260200160002060010160009054906101000a900473ffffffffffffffffffffffffffffffffffffffff1673ffffffffffffffffffffffffffffffffffffffff168273ffffffffffffffffffffffffffffffffffffffff1614151515610e4d57600080fd5b6060604051908101604052808481526020018373ffffffffffffffffffffffffffffffffffffffff16815260200160008152509050806000808473ffffffffffffffffffffffffffffffffffffffff1673ffffffffffffffffffffffffffffffffffffffff1681526020019081526020016000206000820151816000019080519060200190610edd929190611c8a565b5060208201518160010160006101000a81548173ffffffffffffffffffffffffffffffffffffffff021916908373ffffffffffffffffffffffffffffffffffffffff1602179055506040820151816002015590505060018290806001815401808255809150509060018203906000526020600020016000909192909190916101000a81548173ffffffffffffffffffffffffffffffffffffffff021916908373ffffffffffffffffffffffffffffffffffffffff16021790555050505050565b60035481565b6000602052806000526040600020600091509050806000018054600181600116156101000203166002900480601f01602080910402602001604051908101604052809291908181526020018280546001816001161561010002031660029004801561104f5780601f106110245761010080835404028352916020019161104f565b820191906000526020600020905b81548152906001019060200180831161103257829003601f168201915b5050505050908060010160009054906101000a900473ffffffffffffffffffffffffffffffffffffffff16908060020154905083565b60028181548110151561109457fe5b9060005260206000209060060201600091509050806000018054600181600116156101000203166002900480601f0160208091040260200160405190810160405280929190818152602001828054600181600116156101000203166002900480156111405780601f1061111557610100808354040283529160200191611140565b820191906000526020600020905b81548152906001019060200180831161112357829003601f168201915b5050505050908060010154908060020160009054906101000a900473ffffffffffffffffffffffffffffffffffffffff1690806005018054600181600116156101000203166002900480601f01602080910402602001604051908101604052809291908181526020018280546001816001161561010002031660029004801561120a5780601f106111df5761010080835404028352916020019161120a565b820191906000526020600020905b8154815290600101906020018083116111ed57829003601f168201915b5050505050905084565b60008060003373ffffffffffffffffffffffffffffffffffffffff1673ffffffffffffffffffffffffffffffffffffffff16815260200190815260200160002060010160009054906101000a900473ffffffffffffffffffffffffffffffffffffffff1673ffffffffffffffffffffffffffffffffffffffff163373ffffffffffffffffffffffffffffffffffffffff161415156112b157600080fd5b6000803373ffffffffffffffffffffffffffffffffffffffff1673ffffffffffffffffffffffffffffffffffffffff16815260200190815260200160002060020154905090565b60018181548110151561130757fe5b906000526020600020016000915054906101000a900473ffffffffffffffffffffffffffffffffffffffff1681565b6000803373ffffffffffffffffffffffffffffffffffffffff1673ffffffffffffffffffffffffffffffffffffffff16815260200190815260200160002060010160009054906101000a900473ffffffffffffffffffffffffffffffffffffffff1673ffffffffffffffffffffffffffffffffffffffff163373ffffffffffffffffffffffffffffffffffffffff161415156113d157600080fd5b346000803373ffffffffffffffffffffffffffffffffffffffff1673ffffffffffffffffffffffffffffffffffffffff1681526020019081526020016000206002016000828254019250508190555034600360008282540192505081905550565b60003373ffffffffffffffffffffffffffffffffffffffff166000803373ffffffffffffffffffffffffffffffffffffffff1673ffffffffffffffffffffffffffffffffffffffff16815260200190815260200160002060010160009054906101000a900473ffffffffffffffffffffffffffffffffffffffff1673ffffffffffffffffffffffffffffffffffffffff1614905090565b60008060003373ffffffffffffffffffffffffffffffffffffffff1673ffffffffffffffffffffffffffffffffffffffff16815260200190815260200160002060010160009054906101000a900473ffffffffffffffffffffffffffffffffffffffff1673ffffffffffffffffffffffffffffffffffffffff163373ffffffffffffffffffffffffffffffffffffffff1614151561156657600080fd5b6000803373ffffffffffffffffffffffffffffffffffffffff1673ffffffffffffffffffffffffffffffffffffffff16815260200190815260200160002060010160009054906101000a900473ffffffffffffffffffffffffffffffffffffffff16905090565b6115d5611d0a565b6000803373ffffffffffffffffffffffffffffffffffffffff1673ffffffffffffffffffffffffffffffffffffffff16815260200190815260200160002060010160009054906101000a900473ffffffffffffffffffffffffffffffffffffffff1673ffffffffffffffffffffffffffffffffffffffff163373ffffffffffffffffffffffffffffffffffffffff1614151561167057600080fd5b60008511151561167f57600080fd5b846003541015151561169057600080fd5b6000803373ffffffffffffffffffffffffffffffffffffffff1673ffffffffffffffffffffffffffffffffffffffff16815260200190815260200160002060010160009054906101000a900473ffffffffffffffffffffffffffffffffffffffff1673ffffffffffffffffffffffffffffffffffffffff163373ffffffffffffffffffffffffffffffffffffffff1614151561172b57600080fd5b611734836118eb565b15151561174057600080fd5b6117498361199e565b151561175457600080fd5b61175e8386611a94565b151561176957600080fd5b60a0604051908101604052808781526020018681526020018573ffffffffffffffffffffffffffffffffffffffff1681526020018481526020018381525090506002819080600181540180825580915050906001820390600052602060002090600602016000909192909190915060008201518160000190805190602001906117f3929190611c8a565b506020820151816001015560408201518160020160006101000a81548173ffffffffffffffffffffffffffffffffffffffff021916908373ffffffffffffffffffffffffffffffffffffffff1602179055506060820151816003019080519060200190611861929190611d50565b50608082015181600501908051906020019061187e929190611c8a565b505050508373ffffffffffffffffffffffffffffffffffffffff166108fc869081150290604051600060405180830381858888f193505050501580156118c8573d6000803e3d6000fd5b50846003600082825403925050819055506118e38386611b39565b505050505050565b60008060008091505b8351821015611992576001820190505b835181101561198557838181518110151561191b57fe5b9060200190602002015173ffffffffffffffffffffffffffffffffffffffff16848381518110151561194957fe5b9060200190602002015173ffffffffffffffffffffffffffffffffffffffff1614156119785760019250611997565b8080600101915050611904565b81806001019250506118f4565b600092505b5050919050565b600080600090505b8251811015611a895760008084838151811015156119c057fe5b9060200190602002015173ffffffffffffffffffffffffffffffffffffffff1673ffffffffffffffffffffffffffffffffffffffff16815260200190815260200160002060010160009054906101000a900473ffffffffffffffffffffffffffffffffffffffff1673ffffffffffffffffffffffffffffffffffffffff168382815181101515611a4c57fe5b9060200190602002015173ffffffffffffffffffffffffffffffffffffffff16141515611a7c5760009150611a8e565b80806001019150506119a6565b600191505b50919050565b6000806000845184811515611aa557fe5b049150600090505b8451811015611b2c57816000808784815181101515611ac857fe5b9060200190602002015173ffffffffffffffffffffffffffffffffffffffff1673ffffffffffffffffffffffffffffffffffffffff168152602001908152602001600020600201541015611b1f5760009250611b31565b8080600101915050611aad565b600192505b505092915050565b600080835183811515611b4857fe5b049150600090505b8351811015611bcc57816000808684815181101515611b6b57fe5b9060200190602002015173ffffffffffffffffffffffffffffffffffffffff1673ffffffffffffffffffffffffffffffffffffffff168152602001908152602001600020600201600082825403925050819055508080600101915050611b50565b50505050565b828054600181600116156101000203166002900490600052602060002090601f016020900481019282601f10611c1357805160ff1916838001178555611c41565b82800160010185558215611c41579182015b82811115611c40578251825591602001919060010190611c25565b5b509050611c4e9190611dda565b5090565b60606040519081016040528060608152602001600073ffffffffffffffffffffffffffffffffffffffff168152602001600081525090565b828054600181600116156101000203166002900490600052602060002090601f016020900481019282601f10611ccb57805160ff1916838001178555611cf9565b82800160010185558215611cf9579182015b82811115611cf8578251825591602001919060010190611cdd565b5b509050611d069190611dda565b5090565b60a0604051908101604052806060815260200160008152602001600073ffffffffffffffffffffffffffffffffffffffff16815260200160608152602001606081525090565b828054828255906000526020600020908101928215611dc9579160200282015b82811115611dc85782518260006101000a81548173ffffffffffffffffffffffffffffffffffffffff021916908373ffffffffffffffffffffffffffffffffffffffff16021790555091602001919060010190611d70565b5b509050611dd69190611dff565b5090565b611dfc91905b80821115611df8576000816000905550600101611de0565b5090565b90565b611e3f91905b80821115611e3b57600081816101000a81549073ffffffffffffffffffffffffffffffffffffffff021916905550600101611e05565b5090565b905600a165627a7a7230582009310cff67f8c0909a1fa2b38b0f9256dd5bc6ccb1d37f983da7a8f6634ad7920029",
  "source": "\tpragma solidity ^0.4.19;\n\n\t/**\n\t * The Simplr contract allows a group of users to maintain credit and debit, make payments to vendors and settle debts in a trust-less environment\n\t */\n\tcontract Simplr {\n\n\t\t// Constructor \n\t\t// Create a new contract \n\t\tfunction createContract(string gName , string userName) public {\n\n\t\t\tgroupName = gName;\n\t\t\taddUser(userName, msg.sender);\n\t\t\tcontractBalance = 0;\n\n\t\t}\n\n\t\t\n\t\t/* structure representing a user\n\t\t\tname : userName\n\t\t\taddr : wallet address\n\t\t\tbalance : a positive or a negative balance\n\t\t */\n\n\t\tstruct User {\n\t\t\t\t// uint index;\n\t\t\t\tstring name;\n\t\t\t\taddress addr;\n\t\t\t\tuint balance;\n\t\t\t}\n\t\t\n\t\tstruct Expense {\n\t\t\t\t\tstring title;\n\t\t\t\t\tuint amount;\n\t\t\t\t\taddress payTo;\n\t\t\t\t\taddress[] payees;\n\t\t\t\t\tmapping (address => bool) agreements;\n\t\t\t\t\tstring notes;\n\t\t\t\t\t\n\t\t\t\t}\n\n\n\t\tmapping (address => User) public users;\n\n\t\taddress[] public addressList;\n\n\t\tExpense[] public expenses;\n\n\t\tuint public contractBalance;\n\n\t\tstring public groupName;\n\t\t\n\n\t\t\n\t\tfunction addUser(string userName , address userAddress ) public {\n\t\t\t\t\n\t\t\t// Validate that there can be only one address per user\n\t\t\trequire (userAddress != users[userAddress].addr);\n\n\t\t\t// initialize user with 0 balance\n\t\t\tUser memory user = User({name: userName, addr: userAddress , balance: 0});\n\t\t\t//user.index = addressList.push(userAddress)-1;\n\t\t\tusers[userAddress] = user;\n\t\t\taddressList.push(userAddress);\n\t\t}\n\n\t\tfunction fundContract() public payable {\n\n\t\t\t// Validate user is part of group\n\t\t\trequire (msg.sender == users[msg.sender].addr);\n\n\t\t\tusers[msg.sender].balance += msg.value;\n\t\t\tcontractBalance+=msg.value;\n\n\t\t}\n\n\t\t// Withraw money from contract \n\t\tfunction withdraw (uint amount) public onlyUser() payable{\n\t\t\t\n\t\t\trequire (msg.sender == users[msg.sender].addr);\n\t\t\trequire (amount > 0);\n\t\t\trequire (amount <= users[msg.sender].balance);\n\t\t\t\n\t\t\tmsg.sender.transfer(amount);\n\n\t\t\tusers[msg.sender].balance -= amount;\n\n\t\t\tcontractBalance-= amount;\n\t\t}\n\n\t\t\n\n\t\tfunction makePayment(string paymentTitle, uint paymentAmount , address paymentAddress , address[] paymentPayees , string paymentNotes) public onlyUser() payable {\n\t\t\t\n\t\t\t// Validate non-negative payment\n\t\t\trequire (paymentAmount > 0);\n\n\t\t\t// Validate contract has enough balance\n\t\t\trequire (contractBalance >= paymentAmount);\n\t\t\t\n\t\t\t// Validate sender is a part of the group\n\t\t\trequire (msg.sender == users[msg.sender].addr);\n\n\n\t\t\t// Check for duplicate users\n\t\t\trequire (!hasDuplicateUsers(paymentPayees));\n\n\t\t\t// Validate all payees are a part of the group\n\t\t\trequire (validatePayees(paymentPayees));\n\n\t\t\t// Validate if all payees have enough balance\n\t\t\trequire (validatePayeeBalance(paymentPayees,paymentAmount));\n\t\t\t\n\n\n\t\t\tExpense memory expense = Expense({title: paymentTitle, amount: paymentAmount, payTo: paymentAddress, payees: paymentPayees, notes: paymentNotes});\n\t\t\texpenses.push(expense);\n\n\t\t\tpaymentAddress.transfer(paymentAmount);\n\t\t\tcontractBalance -= paymentAmount;\n\n\t\t\t//Deduct balance of payees\n\t\t\tdeductBalance(paymentPayees,paymentAmount);\n\n\t\t}\n\t\t\n\t\tfunction deductBalance (address[] payees,uint paymentAmount) internal {\n\t\t\tuint individualAmount = paymentAmount/payees.length;\n\t\t\tfor(uint i=0;i<payees.length;i++){\n\t\t\t\tusers[payees[i]].balance -= individualAmount;\n\t\t\t}\n\t\t} \n\t\t\n\t\tfunction validatePayeeBalance (address[] payees,uint paymentAmount) internal view returns (bool) {\n\t\t\tuint individualAmount = paymentAmount/payees.length;\n\t\t\tfor(uint i=0;i<payees.length;i++){\n\t\t\t\tif(users[payees[i]].balance < individualAmount){\n\t\t\t\t\treturn false;\n\t\t\t\t}\n\t\t\t}\n\t\t\treturn true;\n\t\t}\n\t\t\n\t\tfunction isUserInGroup () view public returns(bool){\n\t\t\treturn (users[msg.sender].addr == msg.sender);\n\t\t\t\n\t\t}\n\t\t\n\t\t\n\t\t//  Checks if all payees are a part of the group\n\t\tfunction validatePayees (address[] payees) internal view returns (bool) {\n\t\t\tfor(uint i=0;i<payees.length;i++){\n\t\t\t\tif(payees[i] != users[payees[i]].addr){\n\t\t\t\t\treturn false;\n\t\t\t\t}\n\t\t\t}\n\t\t\treturn true;\n\t\t}\n\t\t\n\t\tfunction hasDuplicateUsers (address[] payees) internal pure returns(bool) {\n\t\t\tfor(uint i=0;i<payees.length;i++){\n\t\t\t\tfor(uint j=i+1;j<payees.length;j++){\n\t\t\t\t\tif(payees[i] == payees[j]) {\n\t\t\t\t\t\treturn true;\n\t\t\t\t\t}\n\t\t\t\t}\n\t\t\t}\n\t\t\treturn false;\n\n\t\t}\n\n\t\tfunction getNumberOfUsers() public view returns(uint){\n\t\t\treturn addressList.length;\t\t\n\t\t}\n\t\t\n\t\tfunction getUserBalance () public onlyUser() view returns(uint)  {\n\t\t\treturn users[msg.sender].balance;\n\t\t}\n\n\t\tfunction getUserAddress () public onlyUser() view returns(address)  {\n\t\t\treturn users[msg.sender].addr;\n\t\t}\n\n\t\tfunction getContractBalance () public onlyUser() view returns(uint) {\n\t\t\treturn address(this).balance;\n\t\t}\n\n\t\tfunction getUserName () public onlyUser() view returns(string)  {\n\t\t\treturn users[msg.sender].name;\n\t\t}\n\n\t\tmodifier onlyUser() { \n\t\t\trequire (msg.sender == users[msg.sender].addr); \n\t\t\t_; \n\t\t}\n\t\t\t\t\t\t\n\t}\n\n\t\t\t\t",
  "sourcePath": "/home/siddhanjay/softwares/tronSimplr/contracts/Simplr.sol",
  "compiler": {
    "name": "solc",
    "version": "0.4.24-develop.2018.8.28+commit.3ba0cdec.mod.Emscripten.clang"
  },
  "schemaVersion": "2.0.1",
  "updatedAt": "2018-12-28T20:07:12.366Z"
}